S013000042616E74205361796963692E737265630A
S11300000C943C000C9459000C949B000C945900E3
S11300100C9459000C9459000C9459000C945900F8
S11300200C9459000C9459000C9459000C945900E8
S11300300C9459000C9459000C9459000C945900D8
S11300400C9459000C9459000C9459000C945900C8
S11300500C9459000C9459000C9459000C945900B8
S11300600C9459000C9459003132334134353642E2
S1130070373839434530464411241FBECFEFD8E00A
S1130080DEBFCDBF11E0A0E0B1E0ECEAFCE002C0CD
S113009005900D92AE33B107D9F721E0AEE3B1E09C
S11300A001C01D92AF38B207E1F70E94D1020C944F
S11300B054060C9400008AB1877F8AB98AB18061A2
S11300C08AB98DB382608DBBE9E6F0E080818460FB
S11300D080837894109285001092840010924301DA
S11300E0109242011092400110923F01109241017E
S11300F008958BB180618BB98FE59AEE0197F1F782
S113010000C000008BB18F7E8BB960914201709169
S1130110430180E090E00E94240528E23EE74CE0A1
S11301205DE30E948A050E94EE047093400160938F
S11301303F01CB0108951F920F920FB60F92112425
S11301408F939F93EF93FF9380914101813071F4DA
S113015010928100E4E8F0E0808191819093430162
S113016080934201118210821092410180914101D9
S1130170811108C0E1E8F0E080818160808381E042
S113018080934101FF91EF919F918F910F900FBE4A
S11301900F901F9018958FEF8093B800089584EA0C
S11301A08093BC008091BC008823E4F7089584E91F
S11301B08093BC0008958093BB0084E88093BC00C6
S11301C08091BC008823E4F70895CF93DF93C82F70
S11301D0D62F0E94CF008D2F0E94DB008C2F0E940F
S11301E0DB000E94D700DF91CF9108958AB191E09E
S11301F089278AB92AB182E028272AB92AB144E09A
S113020024272AB92AB130E223272AB95AB120E493
S113021052275AB95AB150585AB954B1592754B9F6
S113022054B1582754B95BB159275BB95BB158270E
S11302305BB95BB145274BB94BB134273BB93BB1F3
S113024023272BB92BB120582BB925B1922795B967
S113025095B1892785B908958AB18E7F8AB98AB103
S11302608D7F8AB98AB18B7F8AB98AB18F7D8AB929
S11302708AB180648AB98AB180688AB984B181609C
S113028084B984B1826084B98BB181608BB98BB13C
S113029082608BB98BB184608BB98BB180628BB96E
S11302A08BB18F7B8BB98BB18F778BB985B18E7FF7
S11302B085B985B18D7F85B90895CF93DF9300D03B
S11302C000D01F92CDB7DEB719821B821A8280EF4D
S11302D08D8389B181709D81892B8D8389B19D81A5
S11302E08270892B8D8389B19D818470892B8D8344
S11302F04D9B02C088E001C080E09D81892B8D83E5
S11303008D8180958A838A81882309F462C00E9442
S1130310F6008FE08C834E9B02C080E101C080E038
S11303209C81892B8C834F9B02C080E201C080E0BA
S11303309C81892B8C83189B02C080E401C080E0DF
S11303409C81892B8C83199B02C080E801C080E0CA
S11303509C81892B8C838C8180958B830E94F600F1
S11303608A8180FF02C01A8211C08A8181FF03C082
S113037081E08A830BC08A8182FF03C082E08A8382
S113038005C08A8183FF02C083E08A838B8184FF56
S113039002C01B8211C08B8185FF03C081E08B8367
S11303A00BC08B8186FF03C082E08B8305C08B81E9
S11303B0882314F483E08B83EA81F0E08B81EE0FD1
S11303C0FF1FEE0FFF1FE80FF11DE859FF4FE491E7
S11303D0E98389810F900F900F900F900F90DF9118
S11303E0CF910895CF93C82FC295C07F80913E01CD
S11303F0846080933E016EE40E94E50080E18A956A
S1130400F1F700C080913E016EE48C2B0E94E50060
S113041080913E018B7F80933E016EE40E94E50053
S113042080E18A95F1F700C0CF910895CF93DF93CF
S1130430C82FD82FD295DF70611109C080913E0179
S11304408E7F80933E016EE40E94E50008C0809197
S11304503E01816080933E016EE40E94E5008D2F91
S11304600E94F2018C2F0E94F201DF91CF91089536
S1130470CF93DF93C82FD82FD295DF7080913E01A0
S1130480816080933E016EE40E94E5008D2F0E94FE
S1130490F2018C2F0E94F201DF91CF910895109206
S11304A03E010E94CB0085EA9EE00197F1F700C06F
S11304B0000083E00E94F20187EE93E00197F1F7D8
S11304C000C0000083E00E94F20191E29A95F1F7E6
S11304D0000083E00E94F20189EF90E00197F1F7B8
S11304E000C0000082E00E94F20189EF90E00197D1
S11304F0F1F700C0000060E088E20E94160289EF74
S113050090E00197F1F700C0000060E08CE00E94E9
S1130510160289EF90E00197F1F700C0000060E057
S113052086E00E94160289EF90E00197F1F700C07F
S1130530000080913E01886080933E016EE40E9439
S1130540E50080913E018D7F80933E016EE40E9420
S1130550E500089560E081E00E94160286E791E0DC
S11305600197F1F700C00000089590E4699F800DA1
S1130570112460E080680E94160208950F931F936F
S1130580CF938C01C0E003C00E943802CF5FF80112
S1130590EC0FF11D80818111F7CFCF911F910F9145
S11305A008950E945B001092550110924901109227
S11305B08D0110928E0110924A0110924401109202
S11305C04C011092560110924E0110924D0110925E
S11305D0500110924F01109248011092470110925D
S11305E0520110925101109246011092450110924D
S11305F05A01109259011092580110925701109209
S11306004B0188E592E090935401809353010E943A
S11306102C010E944F020E94AA020E945D01809355
S1130620550180915501813469F4809149018230EA
S113063049F00E94AA0281E08093490180938D01D0
S113064080938E0180915501823409F04DC00E943F
S1130650AA02E0914A01F0E0F097F0934E01E09392
S11306604D016091440170E0605371097093500131
S113067060934F0180914C0190E0C09790934801A2
S1130680809347014091560150E0405351095093E3
S113069052014093510128EE33E0E29FD001E39FE1
S11306A0B00DF29FB00D1124E4E6E69F9001E79FA0
S11306B0300D1124BC01660F771F880F991F880F16
S11306C0991F880F991F860F971F2A0F3B1F820FB0
S11306D0931F840F951F909346018093450182E0F8
S11306E08093490110928D0180915501833471F4F6
S11306F00E94AA021092490110928D0110924A019F
S11307001092440110924C011092560180914901BB
S113071081110FC060E00E94B50280E091E00E9468
S1130720BE0261E080E00E94B5028AE091E00E948E
S1130730BE0280914901813081F460E080E00E9432
S1130740B5028AE191E00E94BE0260E085E00E9469
S1130750B50280E291E00E94BE028091490182309C
S113076009F07DC060E080E00E94B5028CE291E077
S11307700E94BE0260E086E00E94B5024AE06BE59A
S113078071E080914501909146010E941F068BE51E
S113079091E00E94BE0261E080E00E94B50283E322
S11307A091E00E94BE0261E084E00E94B5024AE04A
S11307B06BE571E08091590190915A010E941F06E6
S11307C08BE591E00E94BE0261E088E00E94B502E0
S11307D088E391E00E94BE02809145019091460118
S11307E02091590130915A01821B930B9093580127
S11307F08093570161E08CE00E94B5024AE06BE50A
S113080071E080915701909158010E941F068BE579
S113081091E00E94BE020E9479009093540180935B
S11308205301843F914094F480914B0181110EC097
S11308300E94AA028091590190915A0101969093C5
S11308405A018093590181E080934B0180915301B7
S113085090915401853F914014F010924B01809186
S11308608D01813009F0D9CE80915501813409F48C
S1130870D4CE80915501823409F4CFCE80915501B4
S1130880833409F4CACE80915501843409F4C5CE69
S113089080915501853409F4C0CE80915501863488
S11308A009F4BBCE61E080E00E94B5028CE291E0E5
S11308B00E94BE0261E087E00E94B50280914A0175
S11308C00E94380261E088E00E94B50280914401F0
S11308D00E94380261E089E00E94B50280914C01D7
S11308E00E94380261E08AE00E94B50280915601BC
S11308F00E94380280918E018130C1F480915501AB
S11309008823A1F08091550180934A018FEF99E6E5
S113091028E1815090402040E1F700C0000010928F
S1130920550180918E018F5F80938E0180918E019D
S11309308230E1F4809155018823C1F080914A010D
S11309408823A1F080915501809344018FEF99E6AB
S113095028E1815090402040E1F700C0000010924F
S1130960550180918E018F5F80938E0180918E015D
S11309708330E1F4809155018823C1F080914401D2
S11309808823A1F08091550180934C018FEF99E663
S113099028E1815090402040E1F700C0000010920F
S11309A0550180918E018F5F80938E0180918E011D
S11309B0843009F032CE80915501882309F42DCE7C
S11309C080914C01882309F428CE809155018093AD
S11309D056011092550110928E011FCE0E94F5040B
S11309E06894B1110C94840508950E94690588F0F7
S11309F09F5798F0B92F9927B751B0F0E1F0660FDF
S1130A00771F881F991F1AF0BA95C9F714C0B1301F
S1130A1091F00E948305B1E008950C948305672F3B
S1130A20782F8827B85F39F0B93FCCF3869577954E
S1130A306795B395D9F73EF4909580957095619537
S1130A407F4F8F4F9F4F0895E89409C097FB3EF462
S1130A5090958095709561957F4F8F4F9F4F992307
S1130A60A9F0F92F96E9BB279395F6958795779585
S1130A706795B795F111F8CFFAF4BB0F11F460FF45
S1130A801BC06F5F7F4F8F4F9F4F16C0882311F09D
S1130A9096E911C0772321F09EE8872F762F05C0B1
S1130AA0662371F096E8862F70E060E02AF09A954C
S1130AB0660F771F881FDAF7880F9695879597F941
S1130AC0089557FD9058440F551F59F05F3F71F03A
S1130AD04795880F97FB991F61F09F3F79F08795A1
S1130AE00895121613061406551FF2CF4695F1DF2A
S1130AF008C0161617061806991FF1CF86957105BA
S1130B00610508940895E894BB2766277727CB01ED
S1130B1097F908950E949D050C940E060E94000604
S1130B2038F00E94070620F0952311F00C94F70585
S1130B300C94FD0511240C9484050E94610570F346
S1130B40959FC1F3950F50E0551F629FF001729F6E
S1130B50BB27F00DB11D639FAA27F00DB11DAA1F7D
S1130B60649F6627B00DA11D661F829F2227B00DCA
S1130B70A11D621F739FB00DA11D621F839FA00D55
S1130B80611D221F749F3327A00D611D231F849FA5
S1130B90600D211D822F762F6A2F11249F575040FC
S1130BA09AF0F1F088234AF0EE0FFF1FBB1F661F77
S1130BB0771F881F91505040A9F79E3F510580F040
S1130BC00C94F7050C9484055F3FE4F3983ED4F34A
S1130BD0869577956795B795F795E7959F5FC1F7E4
S1130BE0FE2B880F911D9695879597F9089597F98F
S1130BF09F6780E870E060E008959FEF80EC0895BF
S1130C0000240A94161617061806090608950024E7
S1130C100A9412161306140605060895092E039461
S1130C20000C11F4882352F0BB0F40F4BF2B11F4D5
S1130C3060FF04C06F5F7F4F8F4F9F4F0895BB27A6
S1130C404A3031F4992322F4BDE2909581959F4F67
S1130C500C942B06BB27FB015527AA27880F991F45
S1130C60AA1FA41710F0A41B83955051B9F7A05DD7
S1130C70AA3308F0A95DA193009779F7B111B19354
S1130C801192CB010C944406DC01FC01672F719195
S1130C907723E1F7329704C07C916D93708362915E
S10F0CA0AE17BF07C8F30895F894FFCF07
S1130CAC484544454620594F4B0041204159415237
S1130CBC4C415220412047495400415941523A0079
S1130CCC42204F4E5920432053494C00484544453B
S1110CDC463A005941503A004B4C4E3A000043
S9030000FC
